{
  "_format": "hh-sol-artifact-1",
  "contractName": "CustomToken",
  "sourceName": "contracts/CustomToken.sol",
  "abi": [
    {
      "inputs": [
        {
          "internalType": "string",
          "name": "name_",
          "type": "string"
        },
        {
          "internalType": "string",
          "name": "symbol_",
          "type": "string"
        },
        {
          "internalType": "uint8",
          "name": "decimals_",
          "type": "uint8"
        },
        {
          "internalType": "uint256",
          "name": "initialSupply_",
          "type": "uint256"
        },
        {
          "internalType": "uint256",
          "name": "maxSupply_",
          "type": "uint256"
        },
        {
          "internalType": "string",
          "name": "logoUrl_",
          "type": "string"
        },
        {
          "internalType": "string",
          "name": "description_",
          "type": "string"
        }
      ],
      "stateMutability": "nonpayable",
      "type": "constructor"
    },
    {
      "inputs": [
        {
          "internalType": "uint256",
          "name": "increasedSupply",
          "type": "uint256"
        },
        {
          "internalType": "uint256",
          "name": "cap",
          "type": "uint256"
        }
      ],
      "name": "ERC20ExceededCap",
      "type": "error"
    },
    {
      "inputs": [
        {
          "internalType": "address",
          "name": "spender",
          "type": "address"
        },
        {
          "internalType": "uint256",
          "name": "allowance",
          "type": "uint256"
        },
        {
          "internalType": "uint256",
          "name": "needed",
          "type": "uint256"
        }
      ],
      "name": "ERC20InsufficientAllowance",
      "type": "error"
    },
    {
      "inputs": [
        {
          "internalType": "address",
          "name": "sender",
          "type": "address"
        },
        {
          "internalType": "uint256",
          "name": "balance",
          "type": "uint256"
        },
        {
          "internalType": "uint256",
          "name": "needed",
          "type": "uint256"
        }
      ],
      "name": "ERC20InsufficientBalance",
      "type": "error"
    },
    {
      "inputs": [
        {
          "internalType": "address",
          "name": "approver",
          "type": "address"
        }
      ],
      "name": "ERC20InvalidApprover",
      "type": "error"
    },
    {
      "inputs": [
        {
          "internalType": "uint256",
          "name": "cap",
          "type": "uint256"
        }
      ],
      "name": "ERC20InvalidCap",
      "type": "error"
    },
    {
      "inputs": [
        {
          "internalType": "address",
          "name": "receiver",
          "type": "address"
        }
      ],
      "name": "ERC20InvalidReceiver",
      "type": "error"
    },
    {
      "inputs": [
        {
          "internalType": "address",
          "name": "sender",
          "type": "address"
        }
      ],
      "name": "ERC20InvalidSender",
      "type": "error"
    },
    {
      "inputs": [
        {
          "internalType": "address",
          "name": "spender",
          "type": "address"
        }
      ],
      "name": "ERC20InvalidSpender",
      "type": "error"
    },
    {
      "inputs": [
        {
          "internalType": "address",
          "name": "owner",
          "type": "address"
        }
      ],
      "name": "OwnableInvalidOwner",
      "type": "error"
    },
    {
      "inputs": [
        {
          "internalType": "address",
          "name": "account",
          "type": "address"
        }
      ],
      "name": "OwnableUnauthorizedAccount",
      "type": "error"
    },
    {
      "anonymous": false,
      "inputs": [
        {
          "indexed": true,
          "internalType": "address",
          "name": "owner",
          "type": "address"
        },
        {
          "indexed": true,
          "internalType": "address",
          "name": "spender",
          "type": "address"
        },
        {
          "indexed": false,
          "internalType": "uint256",
          "name": "value",
          "type": "uint256"
        }
      ],
      "name": "Approval",
      "type": "event"
    },
    {
      "anonymous": false,
      "inputs": [
        {
          "indexed": true,
          "internalType": "address",
          "name": "previousOwner",
          "type": "address"
        },
        {
          "indexed": true,
          "internalType": "address",
          "name": "newOwner",
          "type": "address"
        }
      ],
      "name": "OwnershipTransferred",
      "type": "event"
    },
    {
      "anonymous": false,
      "inputs": [
        {
          "indexed": true,
          "internalType": "address",
          "name": "from",
          "type": "address"
        },
        {
          "indexed": true,
          "internalType": "address",
          "name": "to",
          "type": "address"
        },
        {
          "indexed": false,
          "internalType": "uint256",
          "name": "value",
          "type": "uint256"
        }
      ],
      "name": "Transfer",
      "type": "event"
    },
    {
      "inputs": [
        {
          "internalType": "address",
          "name": "owner",
          "type": "address"
        },
        {
          "internalType": "address",
          "name": "spender",
          "type": "address"
        }
      ],
      "name": "allowance",
      "outputs": [
        {
          "internalType": "uint256",
          "name": "",
          "type": "uint256"
        }
      ],
      "stateMutability": "view",
      "type": "function"
    },
    {
      "inputs": [
        {
          "internalType": "address",
          "name": "spender",
          "type": "address"
        },
        {
          "internalType": "uint256",
          "name": "value",
          "type": "uint256"
        }
      ],
      "name": "approve",
      "outputs": [
        {
          "internalType": "bool",
          "name": "",
          "type": "bool"
        }
      ],
      "stateMutability": "nonpayable",
      "type": "function"
    },
    {
      "inputs": [
        {
          "internalType": "address",
          "name": "account",
          "type": "address"
        }
      ],
      "name": "balanceOf",
      "outputs": [
        {
          "internalType": "uint256",
          "name": "",
          "type": "uint256"
        }
      ],
      "stateMutability": "view",
      "type": "function"
    },
    {
      "inputs": [],
      "name": "cap",
      "outputs": [
        {
          "internalType": "uint256",
          "name": "",
          "type": "uint256"
        }
      ],
      "stateMutability": "view",
      "type": "function"
    },
    {
      "inputs": [],
      "name": "decimals",
      "outputs": [
        {
          "internalType": "uint8",
          "name": "",
          "type": "uint8"
        }
      ],
      "stateMutability": "view",
      "type": "function"
    },
    {
      "inputs": [],
      "name": "description",
      "outputs": [
        {
          "internalType": "string",
          "name": "",
          "type": "string"
        }
      ],
      "stateMutability": "view",
      "type": "function"
    },
    {
      "inputs": [],
      "name": "logoUrl",
      "outputs": [
        {
          "internalType": "string",
          "name": "",
          "type": "string"
        }
      ],
      "stateMutability": "view",
      "type": "function"
    },
    {
      "inputs": [
        {
          "internalType": "address",
          "name": "to",
          "type": "address"
        },
        {
          "internalType": "uint256",
          "name": "amount",
          "type": "uint256"
        }
      ],
      "name": "mint",
      "outputs": [],
      "stateMutability": "nonpayable",
      "type": "function"
    },
    {
      "inputs": [],
      "name": "name",
      "outputs": [
        {
          "internalType": "string",
          "name": "",
          "type": "string"
        }
      ],
      "stateMutability": "view",
      "type": "function"
    },
    {
      "inputs": [],
      "name": "owner",
      "outputs": [
        {
          "internalType": "address",
          "name": "",
          "type": "address"
        }
      ],
      "stateMutability": "view",
      "type": "function"
    },
    {
      "inputs": [],
      "name": "renounceOwnership",
      "outputs": [],
      "stateMutability": "nonpayable",
      "type": "function"
    },
    {
      "inputs": [],
      "name": "symbol",
      "outputs": [
        {
          "internalType": "string",
          "name": "",
          "type": "string"
        }
      ],
      "stateMutability": "view",
      "type": "function"
    },
    {
      "inputs": [],
      "name": "totalSupply",
      "outputs": [
        {
          "internalType": "uint256",
          "name": "",
          "type": "uint256"
        }
      ],
      "stateMutability": "view",
      "type": "function"
    },
    {
      "inputs": [
        {
          "internalType": "address",
          "name": "to",
          "type": "address"
        },
        {
          "internalType": "uint256",
          "name": "value",
          "type": "uint256"
        }
      ],
      "name": "transfer",
      "outputs": [
        {
          "internalType": "bool",
          "name": "",
          "type": "bool"
        }
      ],
      "stateMutability": "nonpayable",
      "type": "function"
    },
    {
      "inputs": [
        {
          "internalType": "address",
          "name": "from",
          "type": "address"
        },
        {
          "internalType": "address",
          "name": "to",
          "type": "address"
        },
        {
          "internalType": "uint256",
          "name": "value",
          "type": "uint256"
        }
      ],
      "name": "transferFrom",
      "outputs": [
        {
          "internalType": "bool",
          "name": "",
          "type": "bool"
        }
      ],
      "stateMutability": "nonpayable",
      "type": "function"
    },
    {
      "inputs": [
        {
          "internalType": "address",
          "name": "newOwner",
          "type": "address"
        }
      ],
      "name": "transferOwnership",
      "outputs": [],
      "stateMutability": "nonpayable",
      "type": "function"
    }
  ],
  "bytecode": "0x60c06040523480156200001157600080fd5b506040516200107138038062001071833981016040819052620000349162000407565b33838888600362000046838262000574565b50600462000055828262000574565b50505080600003620000825760405163392e1e2760e01b8152600060048201526024015b60405180910390fd5b6080526001600160a01b038116620000b157604051631e4fbdf760e01b81526000600482015260240162000079565b620000bc81620000fb565b5060ff851660a0526006620000d2838262000574565b506007620000e1828262000574565b50620000ee33856200014d565b5050505050505062000668565b600580546001600160a01b038381166001600160a01b0319831681179093556040519116919082907f8be0079c531659141344cd1fd0a4f28419497f9722a3daafe3b4186f6b6457e090600090a35050565b6001600160a01b038216620001795760405163ec442f0560e01b81526000600482015260240162000079565b62000187600083836200018b565b5050565b62000198838383620001f8565b6001600160a01b038316620001f3576000620001b360805190565b90506000620001c160025490565b905081811115620001f05760405163279e7e1560e21b8152600481018290526024810183905260440162000079565b50505b505050565b6001600160a01b038316620002275780600260008282546200021b919062000640565b909155506200029b9050565b6001600160a01b038316600090815260208190526040902054818110156200027c5760405163391434e360e21b81526001600160a01b0385166004820152602481018290526044810183905260640162000079565b6001600160a01b03841660009081526020819052604090209082900390555b6001600160a01b038216620002b957600280548290039055620002d8565b6001600160a01b03821660009081526020819052604090208054820190555b816001600160a01b0316836001600160a01b03167fddf252ad1be2c89b69c2b068fc378daa952ba7f163c4a11628f55a4df523b3ef836040516200031e91815260200190565b60405180910390a3505050565b634e487b7160e01b600052604160045260246000fd5b600082601f8301126200035357600080fd5b81516001600160401b03808211156200037057620003706200032b565b604051601f8301601f19908116603f011681019082821181831017156200039b576200039b6200032b565b81604052838152602092508683858801011115620003b857600080fd5b600091505b83821015620003dc5785820183015181830184015290820190620003bd565b600093810190920192909252949350505050565b805160ff811681146200040257600080fd5b919050565b600080600080600080600060e0888a0312156200042357600080fd5b87516001600160401b03808211156200043b57600080fd5b620004498b838c0162000341565b985060208a01519150808211156200046057600080fd5b6200046e8b838c0162000341565b97506200047e60408b01620003f0565b965060608a0151955060808a0151945060a08a0151915080821115620004a357600080fd5b620004b18b838c0162000341565b935060c08a0151915080821115620004c857600080fd5b50620004d78a828b0162000341565b91505092959891949750929550565b600181811c90821680620004fb57607f821691505b6020821081036200051c57634e487b7160e01b600052602260045260246000fd5b50919050565b601f821115620001f357600081815260208120601f850160051c810160208610156200054b5750805b601f850160051c820191505b818110156200056c5782815560010162000557565b505050505050565b81516001600160401b038111156200059057620005906200032b565b620005a881620005a18454620004e6565b8462000522565b602080601f831160018114620005e05760008415620005c75750858301515b600019600386901b1c1916600185901b1785556200056c565b600085815260208120601f198616915b828110156200061157888601518255948401946001909101908401620005f0565b5085821015620006305787850151600019600388901b60f8161c191681555b5050505050600190811b01905550565b808201808211156200066257634e487b7160e01b600052601160045260246000fd5b92915050565b60805160a0516109dc62000695600039600061017201526000818161019e01526106aa01526109dc6000f3fe608060405234801561001057600080fd5b50600436106101005760003560e01c8063715018a611610097578063993d77af11610066578063993d77af14610233578063a9059cbb1461023b578063dd62ed3e1461024e578063f2fde38b1461028757600080fd5b8063715018a6146102005780637284e416146102085780638da5cb5b1461021057806395d89b411461022b57600080fd5b8063313ce567116100d3578063313ce5671461016b578063355274ea1461019c57806340c10f19146101c257806370a08231146101d757600080fd5b806306fdde0314610105578063095ea7b31461012357806318160ddd1461014657806323b872dd14610158575b600080fd5b61010d61029a565b60405161011a9190610826565b60405180910390f35b610136610131366004610890565b61032c565b604051901515815260200161011a565b6002545b60405190815260200161011a565b6101366101663660046108ba565b610346565b60405160ff7f000000000000000000000000000000000000000000000000000000000000000016815260200161011a565b7f000000000000000000000000000000000000000000000000000000000000000061014a565b6101d56101d0366004610890565b61036a565b005b61014a6101e53660046108f6565b6001600160a01b031660009081526020819052604090205490565b6101d5610380565b61010d610394565b6005546040516001600160a01b03909116815260200161011a565b61010d6103a3565b61010d6103b2565b610136610249366004610890565b6103c1565b61014a61025c366004610918565b6001600160a01b03918216600090815260016020908152604080832093909416825291909152205490565b6101d56102953660046108f6565b6103cf565b6060600380546102a99061094b565b80601f01602080910402602001604051908101604052809291908181526020018280546102d59061094b565b80156103225780601f106102f757610100808354040283529160200191610322565b820191906000526020600020905b81548152906001019060200180831161030557829003601f168201915b5050505050905090565b60003361033a818585610412565b60019150505b92915050565b600033610354858285610424565b61035f8585856104a3565b506001949350505050565b610372610502565b61037c828261052f565b5050565b610388610502565b6103926000610565565b565b6060600780546102a99061094b565b6060600480546102a99061094b565b6060600680546102a99061094b565b60003361033a8185856104a3565b6103d7610502565b6001600160a01b03811661040657604051631e4fbdf760e01b8152600060048201526024015b60405180910390fd5b61040f81610565565b50565b61041f83838360016105b7565b505050565b6001600160a01b0383811660009081526001602090815260408083209386168352929052205460001981101561049d578181101561048e57604051637dc7a0d960e11b81526001600160a01b038416600482015260248101829052604481018390526064016103fd565b61049d848484840360006105b7565b50505050565b6001600160a01b0383166104cd57604051634b637e8f60e11b8152600060048201526024016103fd565b6001600160a01b0382166104f75760405163ec442f0560e01b8152600060048201526024016103fd565b61041f83838361068c565b6005546001600160a01b031633146103925760405163118cdaa760e01b81523360048201526024016103fd565b6001600160a01b0382166105595760405163ec442f0560e01b8152600060048201526024016103fd565b61037c6000838361068c565b600580546001600160a01b038381166001600160a01b0319831681179093556040519116919082907f8be0079c531659141344cd1fd0a4f28419497f9722a3daafe3b4186f6b6457e090600090a35050565b6001600160a01b0384166105e15760405163e602df0560e01b8152600060048201526024016103fd565b6001600160a01b03831661060b57604051634a1406b160e11b8152600060048201526024016103fd565b6001600160a01b038085166000908152600160209081526040808320938716835292905220829055801561049d57826001600160a01b0316846001600160a01b03167f8c5be1e5ebec7d5bd14f71427d1e84f3dd0314c0f7b2291e5b200ac8c7c3b9258460405161067e91815260200190565b60405180910390a350505050565b6106978383836106fc565b6001600160a01b03831661041f576002547f000000000000000000000000000000000000000000000000000000000000000090818111156106f55760405163279e7e1560e21b815260048101829052602481018390526044016103fd565b5050505050565b6001600160a01b03831661072757806002600082825461071c9190610985565b909155506107999050565b6001600160a01b0383166000908152602081905260409020548181101561077a5760405163391434e360e21b81526001600160a01b038516600482015260248101829052604481018390526064016103fd565b6001600160a01b03841660009081526020819052604090209082900390555b6001600160a01b0382166107b5576002805482900390556107d4565b6001600160a01b03821660009081526020819052604090208054820190555b816001600160a01b0316836001600160a01b03167fddf252ad1be2c89b69c2b068fc378daa952ba7f163c4a11628f55a4df523b3ef8360405161081991815260200190565b60405180910390a3505050565b600060208083528351808285015260005b8181101561085357858101830151858201604001528201610837565b506000604082860101526040601f19601f8301168501019250505092915050565b80356001600160a01b038116811461088b57600080fd5b919050565b600080604083850312156108a357600080fd5b6108ac83610874565b946020939093013593505050565b6000806000606084860312156108cf57600080fd5b6108d884610874565b92506108e660208501610874565b9150604084013590509250925092565b60006020828403121561090857600080fd5b61091182610874565b9392505050565b6000806040838503121561092b57600080fd5b61093483610874565b915061094260208401610874565b90509250929050565b600181811c9082168061095f57607f821691505b60208210810361097f57634e487b7160e01b600052602260045260246000fd5b50919050565b8082018082111561034057634e487b7160e01b600052601160045260246000fdfea26469706673582212207886108adc5b74eb41819424ffdda044cc8e2092482bea889831d5513be8fc4064736f6c63430008140033",
  "linkReferences": {},
  "deployedLinkReferences": {}
}